{
  "_format": "hh-sol-artifact-1",
  "contractName": "IntentSpenderMulti",
  "sourceName": "contracts/IntentSpenderMulti.sol",
  "abi": [
    {
      "inputs": [],
      "stateMutability": "nonpayable",
      "type": "constructor"
    },
    {
      "anonymous": false,
      "inputs": [
        {
          "indexed": true,
          "internalType": "address",
          "name": "to",
          "type": "address"
        },
        {
          "indexed": false,
          "internalType": "uint256",
          "name": "amount",
          "type": "uint256"
        },
        {
          "indexed": false,
          "internalType": "string",
          "name": "note",
          "type": "string"
        }
      ],
      "name": "SpentETH",
      "type": "event"
    },
    {
      "anonymous": false,
      "inputs": [
        {
          "indexed": true,
          "internalType": "address",
          "name": "token",
          "type": "address"
        },
        {
          "indexed": true,
          "internalType": "address",
          "name": "to",
          "type": "address"
        },
        {
          "indexed": false,
          "internalType": "uint256",
          "name": "amount",
          "type": "uint256"
        },
        {
          "indexed": false,
          "internalType": "string",
          "name": "note",
          "type": "string"
        }
      ],
      "name": "SpentToken",
      "type": "event"
    },
    {
      "inputs": [
        {
          "internalType": "address payable",
          "name": "_to",
          "type": "address"
        },
        {
          "internalType": "uint256",
          "name": "_amount",
          "type": "uint256"
        },
        {
          "internalType": "string",
          "name": "_note",
          "type": "string"
        }
      ],
      "name": "executeIntentETH",
      "outputs": [],
      "stateMutability": "nonpayable",
      "type": "function"
    },
    {
      "inputs": [
        {
          "internalType": "address",
          "name": "_token",
          "type": "address"
        },
        {
          "internalType": "address",
          "name": "_to",
          "type": "address"
        },
        {
          "internalType": "uint256",
          "name": "_amount",
          "type": "uint256"
        },
        {
          "internalType": "string",
          "name": "_note",
          "type": "string"
        }
      ],
      "name": "executeIntentToken",
      "outputs": [],
      "stateMutability": "nonpayable",
      "type": "function"
    },
    {
      "inputs": [],
      "name": "getETHBalance",
      "outputs": [
        {
          "internalType": "uint256",
          "name": "",
          "type": "uint256"
        }
      ],
      "stateMutability": "view",
      "type": "function"
    },
    {
      "inputs": [
        {
          "internalType": "address",
          "name": "_token",
          "type": "address"
        }
      ],
      "name": "getTokenBalance",
      "outputs": [
        {
          "internalType": "uint256",
          "name": "",
          "type": "uint256"
        }
      ],
      "stateMutability": "view",
      "type": "function"
    },
    {
      "inputs": [],
      "name": "owner",
      "outputs": [
        {
          "internalType": "address",
          "name": "",
          "type": "address"
        }
      ],
      "stateMutability": "view",
      "type": "function"
    },
    {
      "stateMutability": "payable",
      "type": "receive"
    }
  ],
  "bytecode": "0x608060405234801561001057600080fd5b50336000806101000a81548173ffffffffffffffffffffffffffffffffffffffff021916908373ffffffffffffffffffffffffffffffffffffffff160217905550610bdf806100606000396000f3fe60806040526004361061004e5760003560e01c80633aecd0e31461005a57806343382e7f146100975780636e947298146100c05780638da5cb5b146100eb578063de5ac4931461011657610055565b3661005557005b600080fd5b34801561006657600080fd5b50610081600480360381019061007c9190610643565b61013f565b60405161008e9190610689565b60405180910390f35b3480156100a357600080fd5b506100be60048036038101906100b99190610735565b6101c2565b005b3480156100cc57600080fd5b506100d561043f565b6040516100e29190610689565b60405180910390f35b3480156100f757600080fd5b50610100610447565b60405161010d91906107cc565b60405180910390f35b34801561012257600080fd5b5061013d60048036038101906101389190610825565b61046b565b005b60008173ffffffffffffffffffffffffffffffffffffffff166370a08231306040518263ffffffff1660e01b815260040161017a91906107cc565b602060405180830381865afa158015610197573d6000803e3d6000fd5b505050506040513d601f19601f820116820180604052508101906101bb91906108ae565b9050919050565b60008054906101000a900473ffffffffffffffffffffffffffffffffffffffff1673ffffffffffffffffffffffffffffffffffffffff163373ffffffffffffffffffffffffffffffffffffffff1614610250576040517f08c379a000000000000000000000000000000000000000000000000000000000815260040161024790610938565b60405180910390fd5b6000859050838173ffffffffffffffffffffffffffffffffffffffff166370a08231306040518263ffffffff1660e01b815260040161028f91906107cc565b602060405180830381865afa1580156102ac573d6000803e3d6000fd5b505050506040513d601f19601f820116820180604052508101906102d091906108ae565b1015610311576040517f08c379a0000000000000000000000000000000000000000000000000000000008152600401610308906109a4565b60405180910390fd5b8073ffffffffffffffffffffffffffffffffffffffff1663a9059cbb86866040518363ffffffff1660e01b815260040161034c9291906109c4565b6020604051808303816000875af115801561036b573d6000803e3d6000fd5b505050506040513d601f19601f8201168201806040525081019061038f9190610a25565b6103ce576040517f08c379a00000000000000000000000000000000000000000000000000000000081526004016103c590610a9e565b60405180910390fd5b8473ffffffffffffffffffffffffffffffffffffffff168673ffffffffffffffffffffffffffffffffffffffff167ff83f0009c570fea7093b88ce38252d125f86373c8c274c6e24df72542a90597486868660405161042f93929190610b0b565b60405180910390a3505050505050565b600047905090565b60008054906101000a900473ffffffffffffffffffffffffffffffffffffffff1681565b60008054906101000a900473ffffffffffffffffffffffffffffffffffffffff1673ffffffffffffffffffffffffffffffffffffffff163373ffffffffffffffffffffffffffffffffffffffff16146104f9576040517f08c379a00000000000000000000000000000000000000000000000000000000081526004016104f090610938565b60405180910390fd5b8247101561053c576040517f08c379a000000000000000000000000000000000000000000000000000000000815260040161053390610b89565b60405180910390fd5b8373ffffffffffffffffffffffffffffffffffffffff166108fc849081150290604051600060405180830381858888f19350505050158015610582573d6000803e3d6000fd5b508373ffffffffffffffffffffffffffffffffffffffff167f53334c96097804b5912983243e95fdcef5fda421ee08b0a1767ba053c2d7d6a08484846040516105cd93929190610b0b565b60405180910390a250505050565b600080fd5b600080fd5b600073ffffffffffffffffffffffffffffffffffffffff82169050919050565b6000610610826105e5565b9050919050565b61062081610605565b811461062b57600080fd5b50565b60008135905061063d81610617565b92915050565b600060208284031215610659576106586105db565b5b60006106678482850161062e565b91505092915050565b6000819050919050565b61068381610670565b82525050565b600060208201905061069e600083018461067a565b92915050565b6106ad81610670565b81146106b857600080fd5b50565b6000813590506106ca816106a4565b92915050565b600080fd5b600080fd5b600080fd5b60008083601f8401126106f5576106f46106d0565b5b8235905067ffffffffffffffff811115610712576107116106d5565b5b60208301915083600182028301111561072e5761072d6106da565b5b9250929050565b600080600080600060808688031215610751576107506105db565b5b600061075f8882890161062e565b95505060206107708882890161062e565b9450506040610781888289016106bb565b935050606086013567ffffffffffffffff8111156107a2576107a16105e0565b5b6107ae888289016106df565b92509250509295509295909350565b6107c681610605565b82525050565b60006020820190506107e160008301846107bd565b92915050565b60006107f2826105e5565b9050919050565b610802816107e7565b811461080d57600080fd5b50565b60008135905061081f816107f9565b92915050565b6000806000806060858703121561083f5761083e6105db565b5b600061084d87828801610810565b945050602061085e878288016106bb565b935050604085013567ffffffffffffffff81111561087f5761087e6105e0565b5b61088b878288016106df565b925092505092959194509250565b6000815190506108a8816106a4565b92915050565b6000602082840312156108c4576108c36105db565b5b60006108d284828501610899565b91505092915050565b600082825260208201905092915050565b7f4e6f7420617574686f72697a6564000000000000000000000000000000000000600082015250565b6000610922600e836108db565b915061092d826108ec565b602082019050919050565b6000602082019050818103600083015261095181610915565b9050919050565b7f496e73756666696369656e7420746f6b656e2062616c616e6365000000000000600082015250565b600061098e601a836108db565b915061099982610958565b602082019050919050565b600060208201905081810360008301526109bd81610981565b9050919050565b60006040820190506109d960008301856107bd565b6109e6602083018461067a565b9392505050565b60008115159050919050565b610a02816109ed565b8114610a0d57600080fd5b50565b600081519050610a1f816109f9565b92915050565b600060208284031215610a3b57610a3a6105db565b5b6000610a4984828501610a10565b91505092915050565b7f5472616e73666572206661696c65640000000000000000000000000000000000600082015250565b6000610a88600f836108db565b9150610a9382610a52565b602082019050919050565b60006020820190508181036000830152610ab781610a7b565b9050919050565b82818337600083830152505050565b6000601f19601f8301169050919050565b6000610aea83856108db565b9350610af7838584610abe565b610b0083610acd565b840190509392505050565b6000604082019050610b20600083018661067a565b8181036020830152610b33818486610ade565b9050949350505050565b7f496e73756666696369656e74204554482062616c616e63650000000000000000600082015250565b6000610b736018836108db565b9150610b7e82610b3d565b602082019050919050565b60006020820190508181036000830152610ba281610b66565b905091905056fea26469706673582212208aa1016b7dd6a891acafe16ae71e16252ab04550c77cb16357a8de28ff6bd7df64736f6c63430008140033",
  "linkReferences": {},
  "deployedLinkReferences": {}
}